:0A0000005A2800000000000000284C
:0E000A008312031327088A00260882000800CC
:10001800831603139818122800000C2883122D0841
:040028009900080033
:0E002C000030831203138C1A0130F00008001C
:10003A008316031398169030831298008316871735
:10004A00071383128C1E2C281A08F0002628080091
:10005A0083120313AB012A0884000008AC002C08A1
:10006A00003A031942282C08AD000C20AB0A2B08D1
:0C007A002A0784000008AC0034280800AD
:10008600831203131A08A800981C4B281812181676
:060096002808F00008003C
:10009C0005208A110A128000840AA60A0319A70AED
:0800AC00F003031D4E280800BB
:1000B400533083120313A0005430A1004130A20036
:1000C4005230A3005430A400A501073083169C00CD
:1000D40083129F01063083169F00803086008312AE
:1000E400860133308316990018151D200230FB0059
:1000F4000430FC00BA30FD00FD0B7E28FC0B7E288A
:10010400FB0B7E2800002030AA002D201A30FC00B2
:10011400F830FD00FD0B8C28FC0B8C2800000D3002
:10012400AD000C200A30AD000C2016207008031915
:10013400A12843207008A9007008AD000C20A6284F
:100144000614AE280610AE282908793A0319A22805
:0C01540029086B3A0319A4289728AF284B
:02400E004A2F37
:00000001FF
