:0A0000003B2900000000000000286A
:10000A0083120313F801F9011030FC00710DF80D89
:10001A00F90D7408F8027508031C750FF902031824
:10002A001D287408F80775080318750FF9070310D7
:0A003A00F00DF10DFC0B0B2808007F
:1000440083160313981828280000222883123308E3
:040054009900080007
:0E0058008312031321088A002008820008008A
:1000660083120313B60105303602031841283608F9
:100076003507840020308000B60A36283608350752
:1000860084008001B60336083507B7000A30F4004D
:10009600F5013308F0003408F10005207808F00077
:1000A6007908F1003030F0073708840070088000C6
:1000B6000A30F400F5013308F0003408F100052099
:1000C6007008B3007108B40000307106031D6D2876
:1000D60000307006031D70287228B60346280800F3
:0C00E6000E30FD00FD0B75280000080026
:1000F2002C208A110A128000840AA00A0319A10A7C
:08010200F003031D7928080039
:10010A0083120313AB012A0884000008AC002C08F0
:10011A00003A03199A282C08B3002220AB0A2B08AC
:0C012A002A0784000008AC008C280800A4
:10013600831203139F01C0309F0483161F179F1756
:1001460083122A08F000F00D7010F00D7010F00DFB
:10015600701070089F041F1473201F151F1DB528EB
:100166000000B1281F101E08F100F00183161E08BA
:08017600F0040030F104080060
:10017E0083160313981690308312980083168717F0
:10018E00071383128C1ECE281A08F000C828080008
:10019E0083120313AF01B0012A08B1002B08B2007D
:1001AE0080302B06F00080307002031DE0280030F6
:1001BE002A020318EE280130AF000030B0002A08E2
:1001CE00003CB1002B08031C013EB201B202310803
:1001DE00B3003208B4002C08B50033200630AD0051
:1001EE000030AE002E08003C031DFF282D08003CF9
:1001FE0003181A292D082C07F20001302D02F000E9
:10020E000030031C013E2E02F10070082C07840002
:10021E000008F00072088400700880000130AD0202
:10022E00031CAE03F9282C088400203080002F0810
:10023E00300403193A29AD01AE012D082C078400B4
:10024E000008F1007108203A031D3129AD0A031987
:10025E00AE0A24290130AD02031CAE032D082C0773
:08026E0084002D30800008001F
:1002760083120313A2013330831699001815BF2089
:100286000230FB000430FC00BA30FD00FD0B4929AA
:10029600FC0B4929FB0B49290000073083169C00FB
:1002A600013083129F000E3083169F00FF308500B9
:1002B6003F30870086018312AA019B200330FB0092
:1002C6000830FC007730FD00FD0B6729FC0B672921
:1002D600FB0B67298312A20A2208AA00AB0123306E
:0E02E600AC00CF202330AA0085205E297929A4
:02400E004A2F37
:00000001FF
